:10044B005561727420496E697469616C697A6520B3
:10045B0053756363657373210A00505F5357315FA4
:08046B0056414C2025640A00F3
:0100030022DA
:10049A00759850438E40538EFE53890F758B417564
:1004AA008DFDC2ABD28EC2ACD299D2987BFF7A04B0
:0504BA00794B020081F6
:10041900E5A254CF4410FF900073E4F0A3EFF0126B
:10042900049A7BFF7A047965900073E0FFA3E0905A
:100439000078CFF0A3EFF012008120B0FD75C760FE
:0204490080F839
:03000B00020004EC
:0100040032C9
:030013000204BF25
:1004BF00C0E0C083C082C0D075D008900028E0FF94
:0E04CF00900028E4F0D0D0D082D083D0E0326C
:030000000204DD1A
:0C04DD00787FE4F6D8FD75812102041937
:10001600E5102478F582E43400F583E0051022909B
:100026000075300703900078E475F0011203D302DF
:10003600037B2000E97F2ED2008018EF540F249016
:10004600D43440D4FF30040BEF24BFB41A0050035D
:100056002461FFE511600215110514E5147002050F
:100066001330070E900075E475F0011203D3EF020A
:1000760003C10204737403D2078003E4C207F510B8
:100086009000751203EAE4F511F513F514E5116015
:10009600077F2012005980F57512FFC201C200C207
:1000A60002C203C205C206C208120025FF700D3047
:1000B60007057F0012006AAF14AE1322B4255FC293
:1000C600D5C204120025FF24D0B40A00501A75F0D8
:1000D6000A781130D50508B6FF0106C6A426F62013
:1000E600D5047002D20380D924CFB41A00EF50048D
:1000F600C2E5D20402026BD20180C6D20080C0D211
:100106000280BCD2D580BAD20580B47F20120059B5
:100116002002077401B5110040F1120016FF12000B
:1001260059020093D208D2068095120016FB1200DF
:1001360016FA120016F94A4B7006793C7A037BFFD1
:1001460020022EE511602A7E008E8275830012033E
:100156009460060EEE651270F0C2D5EBC0E0EAC000
:10016600E0E9C0E0EE1202B2D0E0F9D0E0FAD0E069
:10017600FB12037BFF60AAEBC0E0EAC0E0E9C0E047
:10018600120059D0E02401F9D0E03400FAD0E0FBA7
:10019600E5120460DCD512D980877BFF7A0279AE3E
:1001A600D202809C791080027908C206C2088008B3
:1001B600D2D5790A8004790AC2D5E512047002F50F
:1001C60012E4FAFDFEFF120016FC7B082001131252
:1001D6000016FD7B1030000A120016FE120016FFF4
:1001E6007B20EC3382D592D55013C3E43000069FB2
:1001F600FFE49EFEE42001039DFDE49CFCE4CBF8B5
:10020600C201EC700CCFCECDCCE824F8F870F380A8
:1002160017C3EF33FFEE33FEED33FDEC33FCEB3368
:10022600FB994002FB0FD8E9EB300105F8D0E0C49A
:1002360048B201C0E00AEC4D4E4F78207B0070C2F8
:10024600EAB5120040BCC0E01202B4D0F0D0E02003
:100256000104C4C0E0C4B201C0F0120042D0F0D51F
:10026600F0EB0200931203F301305301AA58010187
:100276004C00FD4201AE4F01B64401B6490116439A
:0802860001BC5501A04601A0D6
:10028E004501A047035C5001052D01092E012C2BC1
:10029E00010D23012A2003452A00C5480000012430
:1002AE003F3F3F00790AA2D5200314300509B9104B
:1002BE00020404B9080104A2D5200602500104204C
:1002CE0002689202B511005034C0E07F203003194D
:1002DE007F30A20272067205500F12030BC202C2C9
:1002EE0006C205C2087F30800F300503E9C0E01258
:1002FE000059300503D0E0F9D0E0B511CC30051728
:10030E007F30B9100C1200597F583004077F788067
:10031E0003B908031200593002057F2D0200597FE0
:10032E00202008F87F2B2006F322920280CF286E21
:10033E00756C6C2900D2011200163001F8C20178DA
:10034E001130D50108F60200C52D50434958120050
:10035E00162403B405004001E49003579312004A9B
:0D036E00743A12004AD2037511040201AA6C
:10037B00BB010689828A83E0225002E722BBFE0280
:09038B00E32289828A83E49322B3
:10039400BB010CE58229F582E5833AF583E022501E
:1003A40006E92582F8E622BBFE06E92582F8E22268
:0D03B400E58229F582E5833AF583E4932282
:1003C100BB010689828A83F0225002F722BBFE011B
:0203D100F32215
:1003D300F8E0FBA3A3E0F925F0F0E58215827002B3
:0703E3001583E0FA38F02257
:0903EA00EBF0A3EAF0A3E9F02214
:1003F300D083D082F8E4937012740193700DA3A399
:1004030093F8740193F5828883E4737402936860AC
:06041300EFA3A3A380DFAC
:10047300EFB40A07740D12047E740A309811A89918
:10048300B8130CC2983098FDA899C298B811F630E9
:0704930099FDC299F59922C1
:00000001FF
